{
  "_format": "hh-sol-artifact-1",
  "contractName": "Unlockable",
  "sourceName": "contracts/Unlockable.sol",
  "abi": [
    {
      "inputs": [
        {
          "internalType": "uint256",
          "name": "_initialPlatformFeePercent",
          "type": "uint256"
        },
        {
          "internalType": "address",
          "name": "_initialFeeRecipient",
          "type": "address"
        }
      ],
      "stateMutability": "nonpayable",
      "type": "constructor"
    },
    {
      "inputs": [
        {
          "internalType": "address",
          "name": "owner",
          "type": "address"
        }
      ],
      "name": "OwnableInvalidOwner",
      "type": "error"
    },
    {
      "inputs": [
        {
          "internalType": "address",
          "name": "account",
          "type": "address"
        }
      ],
      "name": "OwnableUnauthorizedAccount",
      "type": "error"
    },
    {
      "anonymous": false,
      "inputs": [
        {
          "indexed": true,
          "internalType": "uint256",
          "name": "id",
          "type": "uint256"
        },
        {
          "indexed": true,
          "internalType": "address",
          "name": "publisher",
          "type": "address"
        },
        {
          "indexed": false,
          "internalType": "string",
          "name": "title",
          "type": "string"
        },
        {
          "indexed": false,
          "internalType": "uint256",
          "name": "price",
          "type": "uint256"
        }
      ],
      "name": "ItemListed",
      "type": "event"
    },
    {
      "anonymous": false,
      "inputs": [
        {
          "indexed": true,
          "internalType": "uint256",
          "name": "id",
          "type": "uint256"
        },
        {
          "indexed": true,
          "internalType": "address",
          "name": "buyer",
          "type": "address"
        },
        {
          "indexed": true,
          "internalType": "address",
          "name": "publisher",
          "type": "address"
        },
        {
          "indexed": false,
          "internalType": "uint256",
          "name": "pricePaid",
          "type": "uint256"
        },
        {
          "indexed": false,
          "internalType": "uint256",
          "name": "platformFee",
          "type": "uint256"
        }
      ],
      "name": "ItemPurchased",
      "type": "event"
    },
    {
      "anonymous": false,
      "inputs": [
        {
          "indexed": true,
          "internalType": "address",
          "name": "previousOwner",
          "type": "address"
        },
        {
          "indexed": true,
          "internalType": "address",
          "name": "newOwner",
          "type": "address"
        }
      ],
      "name": "OwnershipTransferred",
      "type": "event"
    },
    {
      "anonymous": false,
      "inputs": [
        {
          "indexed": false,
          "internalType": "uint256",
          "name": "newFeePercent",
          "type": "uint256"
        }
      ],
      "name": "PlatformFeeUpdated",
      "type": "event"
    },
    {
      "inputs": [],
      "name": "getAllItemIds",
      "outputs": [
        {
          "internalType": "uint256[]",
          "name": "",
          "type": "uint256[]"
        }
      ],
      "stateMutability": "view",
      "type": "function"
    },
    {
      "inputs": [
        {
          "internalType": "address",
          "name": "_user",
          "type": "address"
        },
        {
          "internalType": "uint256",
          "name": "_itemId",
          "type": "uint256"
        }
      ],
      "name": "hasAccess",
      "outputs": [
        {
          "internalType": "bool",
          "name": "",
          "type": "bool"
        }
      ],
      "stateMutability": "view",
      "type": "function"
    },
    {
      "inputs": [
        {
          "internalType": "uint256",
          "name": "",
          "type": "uint256"
        }
      ],
      "name": "items",
      "outputs": [
        {
          "internalType": "uint256",
          "name": "id",
          "type": "uint256"
        },
        {
          "internalType": "address payable",
          "name": "publisher",
          "type": "address"
        },
        {
          "internalType": "string",
          "name": "title",
          "type": "string"
        },
        {
          "internalType": "string",
          "name": "description",
          "type": "string"
        },
        {
          "internalType": "uint256",
          "name": "price",
          "type": "uint256"
        },
        {
          "internalType": "bool",
          "name": "exists",
          "type": "bool"
        }
      ],
      "stateMutability": "view",
      "type": "function"
    },
    {
      "inputs": [
        {
          "internalType": "string",
          "name": "_title",
          "type": "string"
        },
        {
          "internalType": "string",
          "name": "_description",
          "type": "string"
        },
        {
          "internalType": "uint256",
          "name": "_price",
          "type": "uint256"
        }
      ],
      "name": "listItem",
      "outputs": [],
      "stateMutability": "nonpayable",
      "type": "function"
    },
    {
      "inputs": [],
      "name": "nextItemId",
      "outputs": [
        {
          "internalType": "uint256",
          "name": "",
          "type": "uint256"
        }
      ],
      "stateMutability": "view",
      "type": "function"
    },
    {
      "inputs": [],
      "name": "owner",
      "outputs": [
        {
          "internalType": "address",
          "name": "",
          "type": "address"
        }
      ],
      "stateMutability": "view",
      "type": "function"
    },
    {
      "inputs": [],
      "name": "platformFeePercent",
      "outputs": [
        {
          "internalType": "uint256",
          "name": "",
          "type": "uint256"
        }
      ],
      "stateMutability": "view",
      "type": "function"
    },
    {
      "inputs": [
        {
          "internalType": "uint256",
          "name": "_itemId",
          "type": "uint256"
        }
      ],
      "name": "purchaseItem",
      "outputs": [],
      "stateMutability": "payable",
      "type": "function"
    },
    {
      "inputs": [
        {
          "internalType": "address",
          "name": "",
          "type": "address"
        },
        {
          "internalType": "uint256",
          "name": "",
          "type": "uint256"
        }
      ],
      "name": "purchasedAccess",
      "outputs": [
        {
          "internalType": "bool",
          "name": "",
          "type": "bool"
        }
      ],
      "stateMutability": "view",
      "type": "function"
    },
    {
      "inputs": [],
      "name": "renounceOwnership",
      "outputs": [],
      "stateMutability": "nonpayable",
      "type": "function"
    },
    {
      "inputs": [
        {
          "internalType": "uint256",
          "name": "_newFeePercent",
          "type": "uint256"
        }
      ],
      "name": "setPlatformFeePercent",
      "outputs": [],
      "stateMutability": "nonpayable",
      "type": "function"
    },
    {
      "inputs": [
        {
          "internalType": "address",
          "name": "newOwner",
          "type": "address"
        }
      ],
      "name": "transferOwnership",
      "outputs": [],
      "stateMutability": "nonpayable",
      "type": "function"
    }
  ],
  "bytecode": "0x60806040523480156200001157600080fd5b5060405162002367380380620023678339818101604052810190620000379190620002f0565b80600073ffffffffffffffffffffffffffffffffffffffff168173ffffffffffffffffffffffffffffffffffffffff1603620000ad5760006040517f1e4fbdf7000000000000000000000000000000000000000000000000000000008152600401620000a4919062000348565b60405180910390fd5b620000be816200018760201b60201c565b50606482111562000106576040517f08c379a0000000000000000000000000000000000000000000000000000000008152600401620000fd90620003c6565b60405180910390fd5b81600481905550600073ffffffffffffffffffffffffffffffffffffffff168173ffffffffffffffffffffffffffffffffffffffff16036200017f576040517f08c379a000000000000000000000000000000000000000000000000000000000815260040162000176906200045e565b60405180910390fd5b505062000480565b60008060009054906101000a900473ffffffffffffffffffffffffffffffffffffffff169050816000806101000a81548173ffffffffffffffffffffffffffffffffffffffff021916908373ffffffffffffffffffffffffffffffffffffffff1602179055508173ffffffffffffffffffffffffffffffffffffffff168173ffffffffffffffffffffffffffffffffffffffff167f8be0079c531659141344cd1fd0a4f28419497f9722a3daafe3b4186f6b6457e060405160405180910390a35050565b600080fd5b6000819050919050565b620002658162000250565b81146200027157600080fd5b50565b60008151905062000285816200025a565b92915050565b600073ffffffffffffffffffffffffffffffffffffffff82169050919050565b6000620002b8826200028b565b9050919050565b620002ca81620002ab565b8114620002d657600080fd5b50565b600081519050620002ea81620002bf565b92915050565b600080604083850312156200030a57620003096200024b565b5b60006200031a8582860162000274565b92505060206200032d85828601620002d9565b9150509250929050565b6200034281620002ab565b82525050565b60006020820190506200035f600083018462000337565b92915050565b600082825260208201905092915050565b7f4665652063616e6e6f7420657863656564203130302500000000000000000000600082015250565b6000620003ae60168362000365565b9150620003bb8262000376565b602082019050919050565b60006020820190508181036000830152620003e1816200039f565b9050919050565b7f496e697469616c2066656520726563697069656e742063616e6e6f742062652060008201527f7a65726f20616464726573730000000000000000000000000000000000000000602082015250565b600062000446602c8362000365565b91506200045382620003e8565b604082019050919050565b60006020820190508181036000830152620004798162000437565b9050919050565b611ed780620004906000396000f3fe6080604052600436106100a75760003560e01c80638da5cb5b116100645780638da5cb5b146101aa578063bfb231d2146101d5578063c6530e4114610217578063cab230d214610254578063d38ea5bf1461027d578063f2fde38b14610299576100a7565b80630562021c146100ac57806365e401b5146100d55780636a86897414610112578063715018a61461013d578063729dfe40146101545780638c639a851461017f575b600080fd5b3480156100b857600080fd5b506100d360048036038101906100ce91906110f2565b6102c2565b005b3480156100e157600080fd5b506100fc60048036038101906100f791906111e5565b610550565b6040516101099190611240565b60405180910390f35b34801561011e57600080fd5b5061012761057f565b604051610134919061126a565b60405180910390f35b34801561014957600080fd5b50610152610585565b005b34801561016057600080fd5b50610169610599565b6040516101769190611343565b60405180910390f35b34801561018b57600080fd5b506101946106c5565b6040516101a1919061126a565b60405180910390f35b3480156101b657600080fd5b506101bf6106cb565b6040516101cc9190611374565b60405180910390f35b3480156101e157600080fd5b506101fc60048036038101906101f7919061138f565b6106f4565b60405161020e9695949392919061146d565b60405180910390f35b34801561022357600080fd5b5061023e600480360381019061023991906111e5565b61086d565b60405161024b9190611240565b60405180910390f35b34801561026057600080fd5b5061027b6004803603810190610276919061138f565b6108d5565b005b6102976004803603810190610292919061138f565b610984565b005b3480156102a557600080fd5b506102c060048036038101906102bb91906114dc565b610d88565b005b60008585905011610308576040517f08c379a00000000000000000000000000000000000000000000000000000000081526004016102ff90611555565b60405180910390fd5b6000811161034b576040517f08c379a0000000000000000000000000000000000000000000000000000000008152600401610342906115c1565b60405180910390fd5b600060015490506040518060c001604052808281526020013373ffffffffffffffffffffffffffffffffffffffff16815260200187878080601f016020809104026020016040519081016040528093929190818152602001838380828437600081840152601f19601f82011690508083019250505050505050815260200185858080601f016020809104026020016040519081016040528093929190818152602001838380828437600081840152601f19601f82011690508083019250505050505050815260200183815260200160011515815250600260008381526020019081526020016000206000820151816000015560208201518160010160006101000a81548173ffffffffffffffffffffffffffffffffffffffff021916908373ffffffffffffffffffffffffffffffffffffffff1602179055506040820151816002019081610499919061181c565b5060608201518160030190816104af919061181c565b506080820151816004015560a08201518160050160006101000a81548160ff0219169083151502179055509050503373ffffffffffffffffffffffffffffffffffffffff16817f4e3807e76e8c2a7b6547b6189eba5d3dc4fe2bc48c057e8ec545ec13be8063c58888866040516105289392919061192a565b60405180910390a3600160008154809291906105439061198b565b9190505550505050505050565b60036020528160005260406000206020528060005260406000206000915091509054906101000a900460ff1681565b60015481565b61058d610e0e565b6105976000610e95565b565b60606000805b6001548110156105f4576002600082815260200190815260200160002060050160009054906101000a900460ff16156105e15781806105dd9061198b565b9250505b80806105ec9061198b565b91505061059f565b5060008167ffffffffffffffff811115610611576106106115e1565b5b60405190808252806020026020018201604052801561063f5781602001602082028036833780820191505090505b5090506000805b6001548110156106bb576002600082815260200190815260200160002060050160009054906101000a900460ff16156106a8578083838151811061068d5761068c6119d3565b5b60200260200101818152505081806106a49061198b565b9250505b80806106b39061198b565b915050610646565b5081935050505090565b60045481565b60008060009054906101000a900473ffffffffffffffffffffffffffffffffffffffff16905090565b60026020528060005260406000206000915090508060000154908060010160009054906101000a900473ffffffffffffffffffffffffffffffffffffffff16908060020180546107439061163f565b80601f016020809104026020016040519081016040528092919081815260200182805461076f9061163f565b80156107bc5780601f10610791576101008083540402835291602001916107bc565b820191906000526020600020905b81548152906001019060200180831161079f57829003601f168201915b5050505050908060030180546107d19061163f565b80601f01602080910402602001604051908101604052809291908181526020018280546107fd9061163f565b801561084a5780601f1061081f5761010080835404028352916020019161084a565b820191906000526020600020905b81548152906001019060200180831161082d57829003601f168201915b5050505050908060040154908060050160009054906101000a900460ff16905086565b6000600360008473ffffffffffffffffffffffffffffffffffffffff1673ffffffffffffffffffffffffffffffffffffffff168152602001908152602001600020600083815260200190815260200160002060009054906101000a900460ff16905092915050565b6108dd610e0e565b6108ff604051806060016040528060278152602001611e7b6027913982610f59565b6064811115610943576040517f08c379a000000000000000000000000000000000000000000000000000000000815260040161093a90611a4e565b60405180910390fd5b806004819055507f45610d581145924dd7090a5017e5f2b1d6f42213bb2e95707ff86846bbfcb1ca81604051610979919061126a565b60405180910390a150565b60006002600083815260200190815260200160002090508060050160009054906101000a900460ff166109ec576040517f08c379a00000000000000000000000000000000000000000000000000000000081526004016109e390611aba565b60405180910390fd5b80600401543414610a32576040517f08c379a0000000000000000000000000000000000000000000000000000000008152600401610a2990611b26565b60405180910390fd5b600360003373ffffffffffffffffffffffffffffffffffffffff1673ffffffffffffffffffffffffffffffffffffffff168152602001908152602001600020600083815260200190815260200160002060009054906101000a900460ff1615610ad0576040517f08c379a0000000000000000000000000000000000000000000000000000000008152600401610ac790611b92565b60405180910390fd5b6000606460045434610ae29190611bb2565b610aec9190611c23565b905060008134610afc9190611c54565b905060008360010160009054906101000a900473ffffffffffffffffffffffffffffffffffffffff1673ffffffffffffffffffffffffffffffffffffffff1682604051610b4890611cb9565b60006040518083038185875af1925050503d8060008114610b85576040519150601f19603f3d011682016040523d82523d6000602084013e610b8a565b606091505b5050905080610bce576040517f08c379a0000000000000000000000000000000000000000000000000000000008152600401610bc590611d40565b60405180910390fd5b6000831115610c8c576000610be16106cb565b73ffffffffffffffffffffffffffffffffffffffff1684604051610c0490611cb9565b60006040518083038185875af1925050503d8060008114610c41576040519150601f19603f3d011682016040523d82523d6000602084013e610c46565b606091505b5050905080610c8a576040517f08c379a0000000000000000000000000000000000000000000000000000000008152600401610c8190611dd2565b60405180910390fd5b505b6001600360003373ffffffffffffffffffffffffffffffffffffffff1673ffffffffffffffffffffffffffffffffffffffff168152602001908152602001600020600087815260200190815260200160002060006101000a81548160ff0219169083151502179055508360010160009054906101000a900473ffffffffffffffffffffffffffffffffffffffff1673ffffffffffffffffffffffffffffffffffffffff163373ffffffffffffffffffffffffffffffffffffffff16867f3970dfcf6c5051e70a042aba5e1c65c1bceb2acd5aaf4e6246d7cd1dedb21aa33487604051610d79929190611df2565b60405180910390a45050505050565b610d90610e0e565b600073ffffffffffffffffffffffffffffffffffffffff168173ffffffffffffffffffffffffffffffffffffffff1603610e025760006040517f1e4fbdf7000000000000000000000000000000000000000000000000000000008152600401610df99190611374565b60405180910390fd5b610e0b81610e95565b50565b610e16610ff5565b73ffffffffffffffffffffffffffffffffffffffff16610e346106cb565b73ffffffffffffffffffffffffffffffffffffffff1614610e9357610e57610ff5565b6040517f118cdaa7000000000000000000000000000000000000000000000000000000008152600401610e8a9190611374565b60405180910390fd5b565b60008060009054906101000a900473ffffffffffffffffffffffffffffffffffffffff169050816000806101000a81548173ffffffffffffffffffffffffffffffffffffffff021916908373ffffffffffffffffffffffffffffffffffffffff1602179055508173ffffffffffffffffffffffffffffffffffffffff168173ffffffffffffffffffffffffffffffffffffffff167f8be0079c531659141344cd1fd0a4f28419497f9722a3daafe3b4186f6b6457e060405160405180910390a35050565b610ff18282604051602401610f6f929190611e1b565b6040516020818303038152906040527fb60e72cc000000000000000000000000000000000000000000000000000000007bffffffffffffffffffffffffffffffffffffffffffffffffffffffff19166020820180517bffffffffffffffffffffffffffffffffffffffffffffffffffffffff8381831617835250505050610ffd565b5050565b600033905090565b6110148161100c611017611038565b63ffffffff16565b50565b60006a636f6e736f6c652e6c6f679050600080835160208501845afa505050565b611043819050919050565b61104b611e4b565b565b600080fd5b600080fd5b600080fd5b600080fd5b600080fd5b60008083601f84011261107c5761107b611057565b5b8235905067ffffffffffffffff8111156110995761109861105c565b5b6020830191508360018202830111156110b5576110b4611061565b5b9250929050565b6000819050919050565b6110cf816110bc565b81146110da57600080fd5b50565b6000813590506110ec816110c6565b92915050565b60008060008060006060868803121561110e5761110d61104d565b5b600086013567ffffffffffffffff81111561112c5761112b611052565b5b61113888828901611066565b9550955050602086013567ffffffffffffffff81111561115b5761115a611052565b5b61116788828901611066565b9350935050604061117a888289016110dd565b9150509295509295909350565b600073ffffffffffffffffffffffffffffffffffffffff82169050919050565b60006111b282611187565b9050919050565b6111c2816111a7565b81146111cd57600080fd5b50565b6000813590506111df816111b9565b92915050565b600080604083850312156111fc576111fb61104d565b5b600061120a858286016111d0565b925050602061121b858286016110dd565b9150509250929050565b60008115159050919050565b61123a81611225565b82525050565b60006020820190506112556000830184611231565b92915050565b611264816110bc565b82525050565b600060208201905061127f600083018461125b565b92915050565b600081519050919050565b600082825260208201905092915050565b6000819050602082019050919050565b6112ba816110bc565b82525050565b60006112cc83836112b1565b60208301905092915050565b6000602082019050919050565b60006112f082611285565b6112fa8185611290565b9350611305836112a1565b8060005b8381101561133657815161131d88826112c0565b9750611328836112d8565b925050600181019050611309565b5085935050505092915050565b6000602082019050818103600083015261135d81846112e5565b905092915050565b61136e816111a7565b82525050565b60006020820190506113896000830184611365565b92915050565b6000602082840312156113a5576113a461104d565b5b60006113b3848285016110dd565b91505092915050565b60006113c782611187565b9050919050565b6113d7816113bc565b82525050565b600081519050919050565b600082825260208201905092915050565b60005b838110156114175780820151818401526020810190506113fc565b60008484015250505050565b6000601f19601f8301169050919050565b600061143f826113dd565b61144981856113e8565b93506114598185602086016113f9565b61146281611423565b840191505092915050565b600060c082019050611482600083018961125b565b61148f60208301886113ce565b81810360408301526114a18187611434565b905081810360608301526114b58186611434565b90506114c4608083018561125b565b6114d160a0830184611231565b979650505050505050565b6000602082840312156114f2576114f161104d565b5b6000611500848285016111d0565b91505092915050565b7f5469746c652063616e6e6f7420626520656d7074790000000000000000000000600082015250565b600061153f6015836113e8565b915061154a82611509565b602082019050919050565b6000602082019050818103600083015261156e81611532565b9050919050565b7f5072696365206d7573742062652067726561746572207468616e207a65726f00600082015250565b60006115ab601f836113e8565b91506115b682611575565b602082019050919050565b600060208201905081810360008301526115da8161159e565b9050919050565b7f4e487b7100000000000000000000000000000000000000000000000000000000600052604160045260246000fd5b7f4e487b7100000000000000000000000000000000000000000000000000000000600052602260045260246000fd5b6000600282049050600182168061165757607f821691505b60208210810361166a57611669611610565b5b50919050565b60008190508160005260206000209050919050565b60006020601f8301049050919050565b600082821b905092915050565b6000600883026116d27fffffffffffffffffffffffffffffffffffffffffffffffffffffffffffffffff82611695565b6116dc8683611695565b95508019841693508086168417925050509392505050565b6000819050919050565b600061171961171461170f846110bc565b6116f4565b6110bc565b9050919050565b6000819050919050565b611733836116fe565b61174761173f82611720565b8484546116a2565b825550505050565b600090565b61175c61174f565b61176781848461172a565b505050565b5b8181101561178b57611780600082611754565b60018101905061176d565b5050565b601f8211156117d0576117a181611670565b6117aa84611685565b810160208510156117b9578190505b6117cd6117c585611685565b83018261176c565b50505b505050565b600082821c905092915050565b60006117f3600019846008026117d5565b1980831691505092915050565b600061180c83836117e2565b9150826002028217905092915050565b611825826113dd565b67ffffffffffffffff81111561183e5761183d6115e1565b5b611848825461163f565b61185382828561178f565b600060209050601f8311600181146118865760008415611874578287015190505b61187e8582611800565b8655506118e6565b601f19841661189486611670565b60005b828110156118bc57848901518255600182019150602085019450602081019050611897565b868310156118d957848901516118d5601f8916826117e2565b8355505b6001600288020188555050505b505050505050565b82818337600083830152505050565b600061190983856113e8565b93506119168385846118ee565b61191f83611423565b840190509392505050565b600060408201905081810360008301526119458185876118fd565b9050611954602083018461125b565b949350505050565b7f4e487b7100000000000000000000000000000000000000000000000000000000600052601160045260246000fd5b6000611996826110bc565b91507fffffffffffffffffffffffffffffffffffffffffffffffffffffffffffffffff82036119c8576119c761195c565b5b600182019050919050565b7f4e487b7100000000000000000000000000000000000000000000000000000000600052603260045260246000fd5b7f4665652063616e6e6f7420657863656564203130302500000000000000000000600082015250565b6000611a386016836113e8565b9150611a4382611a02565b602082019050919050565b60006020820190508181036000830152611a6781611a2b565b9050919050565b7f4974656d20646f6573206e6f7420657869737400000000000000000000000000600082015250565b6000611aa46013836113e8565b9150611aaf82611a6e565b602082019050919050565b60006020820190508181036000830152611ad381611a97565b9050919050565b7f496e636f72726563742045544820616d6f756e742073656e7400000000000000600082015250565b6000611b106019836113e8565b9150611b1b82611ada565b602082019050919050565b60006020820190508181036000830152611b3f81611b03565b9050919050565b7f416c726561647920707572636861736564000000000000000000000000000000600082015250565b6000611b7c6011836113e8565b9150611b8782611b46565b602082019050919050565b60006020820190508181036000830152611bab81611b6f565b9050919050565b6000611bbd826110bc565b9150611bc8836110bc565b9250828202611bd6816110bc565b91508282048414831517611bed57611bec61195c565b5b5092915050565b7f4e487b7100000000000000000000000000000000000000000000000000000000600052601260045260246000fd5b6000611c2e826110bc565b9150611c39836110bc565b925082611c4957611c48611bf4565b5b828204905092915050565b6000611c5f826110bc565b9150611c6a836110bc565b9250828203905081811115611c8257611c8161195c565b5b92915050565b600081905092915050565b50565b6000611ca3600083611c88565b9150611cae82611c93565b600082019050919050565b6000611cc482611c96565b9150819050919050565b7f4661696c656420746f2073656e642066756e647320746f207075626c6973686560008201527f7200000000000000000000000000000000000000000000000000000000000000602082015250565b6000611d2a6021836113e8565b9150611d3582611cce565b604082019050919050565b60006020820190508181036000830152611d5981611d1d565b9050919050565b7f4661696c656420746f2073656e642066756e647320746f20706c6174666f726d60008201527f206f776e65720000000000000000000000000000000000000000000000000000602082015250565b6000611dbc6026836113e8565b9150611dc782611d60565b604082019050919050565b60006020820190508181036000830152611deb81611daf565b9050919050565b6000604082019050611e07600083018561125b565b611e14602083018461125b565b9392505050565b60006040820190508181036000830152611e358185611434565b9050611e44602083018461125b565b9392505050565b7f4e487b7100000000000000000000000000000000000000000000000000000000600052605160045260246000fdfe53657474696e67206e657720706c6174666f726d206665652070657263656e7420746f3a202573a264697066735822122090edf26b3a4b5c65004a6dcf9ccf7575daee8ecaef6657790529a657034d489664736f6c63430008140033",
  "linkReferences": {},
  "deployedLinkReferences": {}
}